{
  "contractName": "bet",
  "abi": [
    {
      "inputs": [],
      "payable": false,
      "stateMutability": "nonpayable",
      "type": "constructor"
    },
    {
      "constant": false,
      "inputs": [
        {
          "name": "_gamblerAddress",
          "type": "address"
        }
      ],
      "name": "register",
      "outputs": [],
      "payable": false,
      "stateMutability": "nonpayable",
      "type": "function"
    },
    {
      "constant": false,
      "inputs": [
        {
          "name": "_betAmount",
          "type": "uint256"
        }
      ],
      "name": "gamble",
      "outputs": [],
      "payable": false,
      "stateMutability": "nonpayable",
      "type": "function"
    },
    {
      "constant": true,
      "inputs": [],
      "name": "declareWinner",
      "outputs": [
        {
          "name": "",
          "type": "address"
        }
      ],
      "payable": false,
      "stateMutability": "view",
      "type": "function"
    }
  ],
  "bytecode": "0x608060405234801561001057600080fd5b5033600160006101000a81548173ffffffffffffffffffffffffffffffffffffffff021916908373ffffffffffffffffffffffffffffffffffffffff1602179055506106b7806100616000396000f300608060405260043610610057576000357c0100000000000000000000000000000000000000000000000000000000900463ffffffff16806314034bd21461005c5780634420e486146100b3578063e43869d2146100f6575b600080fd5b34801561006857600080fd5b50610071610123565b604051808273ffffffffffffffffffffffffffffffffffffffff1673ffffffffffffffffffffffffffffffffffffffff16815260200191505060405180910390f35b3480156100bf57600080fd5b506100f4600480360381019080803573ffffffffffffffffffffffffffffffffffffffff1690602001909291905050506102e1565b005b34801561010257600080fd5b5061012160048036038101908080359060200190929190505050610462565b005b60008060006003600081548110151561013857fe5b90600052602060002090600302016001015491506003600081548110151561015c57fe5b906000526020600020906003020160000160009054906101000a900473ffffffffffffffffffffffffffffffffffffffff166000806101000a81548173ffffffffffffffffffffffffffffffffffffffff021916908373ffffffffffffffffffffffffffffffffffffffff160217905550600090505b6003805490508110156102b857816003828154811015156101ef57fe5b90600052602060002090600302016001015411156102ab5760038181548110151561021657fe5b906000526020600020906003020160010154915060038181548110151561023957fe5b906000526020600020906003020160000160009054906101000a900473ffffffffffffffffffffffffffffffffffffffff166000806101000a81548173ffffffffffffffffffffffffffffffffffffffff021916908373ffffffffffffffffffffffffffffffffffffffff1602179055505b80806001019150506101d2565b6000809054906101000a900473ffffffffffffffffffffffffffffffffffffffff169250505090565b6000600160009054906101000a900473ffffffffffffffffffffffffffffffffffffffff1673ffffffffffffffffffffffffffffffffffffffff163373ffffffffffffffffffffffffffffffffffffffff1614151561033f57600080fd5b60011515600260008473ffffffffffffffffffffffffffffffffffffffff1673ffffffffffffffffffffffffffffffffffffffff16815260200190815260200160002060020160009054906101000a900460ff16151514156103a057600080fd5b600260008373ffffffffffffffffffffffffffffffffffffffff1673ffffffffffffffffffffffffffffffffffffffff168152602001908152602001600020905060018160020160006101000a81548160ff02191690831515021790555060008160020160016101000a81548160ff021916908315150217905550818160000160006101000a81548173ffffffffffffffffffffffffffffffffffffffff021916908373ffffffffffffffffffffffffffffffffffffffff1602179055505050565b600060011515600260003373ffffffffffffffffffffffffffffffffffffffff1673ffffffffffffffffffffffffffffffffffffffff16815260200190815260200160002060020160019054906101000a900460ff161515148061051a575060011515600260003373ffffffffffffffffffffffffffffffffffffffff1673ffffffffffffffffffffffffffffffffffffffff16815260200190815260200160002060020160009054906101000a900460ff16151514155b1561052457600080fd5b600260003373ffffffffffffffffffffffffffffffffffffffff1673ffffffffffffffffffffffffffffffffffffffff168152602001908152602001600020905060018160020160016101000a81548160ff021916908315150217905550818160010181905550600381908060018154018082558091505090600182039060005260206000209060030201600090919290919091506000820160009054906101000a900473ffffffffffffffffffffffffffffffffffffffff168160000160006101000a81548173ffffffffffffffffffffffffffffffffffffffff021916908373ffffffffffffffffffffffffffffffffffffffff160217905550600182015481600101556002820160009054906101000a900460ff168160020160006101000a81548160ff0219169083151502179055506002820160019054906101000a900460ff168160020160016101000a81548160ff02191690831515021790555050505050505600a165627a7a72305820bb123c18d08e7e3ef41ba2360a27e2f79be9f8269fbd5496dd9fa894745f0c420029",
  "source": "pragma solidity ^0.4.0;\r\n\r\ncontract bet{\r\n    struct Gambler{\r\n        address gamblerAddress;\r\n        uint    betAmount;\r\n        bool    alreadyRegistered;\r\n        bool    alreadybet;\r\n    }\r\n    \r\n    address winnerAddress;\r\n    \r\n    address ownerAddress;\r\n    \r\n    mapping (address => Gambler) gamblers;\r\n    \r\n    Gambler[] registeredGamblers;\r\n    \r\n    modifier onlyOwner {\r\n        require(msg.sender == ownerAddress);\r\n        _;\r\n    }\r\n    \r\n    function bet() public {\r\n        ownerAddress = msg.sender;\r\n    }\r\n    \r\n    function register(address _gamblerAddress) public  onlyOwner{\r\n        if(gamblers[_gamblerAddress].alreadyRegistered == true) revert();\r\n        var gambler = gamblers[_gamblerAddress];\r\n        gambler.alreadyRegistered = true;\r\n        gambler.alreadybet = false;\r\n        gambler.gamblerAddress = _gamblerAddress;\r\n        //registeredGamblers.push(gamblers[_gamblerAddress]);\r\n    }\r\n    \r\n    function gamble(uint _betAmount) public {\r\n        if(gamblers[msg.sender].alreadybet == true || gamblers[msg.sender].alreadyRegistered != true) revert();\r\n        var gambler = gamblers[msg.sender];\r\n        gambler.alreadybet = true;\r\n        gambler.betAmount = _betAmount;\r\n        registeredGamblers.push(gambler);\r\n       \r\n    }\r\n    \r\n    function declareWinner() public constant returns (address) {\r\n        uint highestBetAmount = registeredGamblers[0].betAmount;\r\n        winnerAddress = registeredGamblers[0].gamblerAddress;\r\n        for(uint i=0;i<registeredGamblers.length;i++){\r\n            if(registeredGamblers[i].betAmount>highestBetAmount){\r\n                highestBetAmount = registeredGamblers[i].betAmount;\r\n                winnerAddress = registeredGamblers[i].gamblerAddress;\r\n            }\r\n        }\r\n        \r\n        return(winnerAddress);\r\n    }\r\n}",
  "sourcePath": "C:\\GitHubRepositories\\MyFirstRepository\\contracts\\bet.sol",
  "compiler": {
    "name": "solc",
    "version": "0.4.24+commit.e67f0147.Emscripten.clang"
  },
  "schemaVersion": "2.0.1",
  "updatedAt": "2018-08-23T19:28:11.139Z"
}